:020000040800F2
:1000000000080020FD1A0008851A0008871A000859
:1000100000000000000000000000000000000000E0
:10002000000000000000000000000000891A000825
:1000300000000000000000008B1A00088D1A000864
:100040007D1B00087D1B00087D1B00087D1B000830
:100050007D1B00087D1B00087D1B0008951A000809
:10006000000000007D1B00087D1B00087D1B0008B0
:100070007D1B00087D1B0008000000007D1B0008A0
:100080000000000000000000000000000000000070
:100090007D1B000800000000000000007D1B000820
:1000A000000000007D1B00080000000000000000B0
:1000B0007D1B00087D1B0008000000000000000000
:1000C00010B5064C2378002B07D1054B002B02D02E
:1000D000044800E000BF0123237010BD1C00002075
:1000E00000000000D81B0008044B10B5002B03D003
:1000F0000349044800E000BF10BDC04600000000F6
:1001000020000020D81B0008002243088B4274D333
:1001100003098B425FD3030A8B4244D3030B8B4208
:1001200028D3030C8B420DD3FF22090212BA030C11
:100130008B4202D31212090265D0030B8B4219D3F2
:1001400000E0090AC30B8B4201D3CB03C01A524112
:10015000830B8B4201D38B03C01A5241430B8B425A
:1001600001D34B03C01A5241030B8B4201D30B0343
:10017000C01A5241C30A8B4201D3CB02C01A52416A
:10018000830A8B4201D38B02C01A5241430A8B422D
:1001900001D34B02C01A5241030A8B4201D30B0216
:1001A000C01A5241CDD2C3098B4201D3CB01C01A30
:1001B000524183098B4201D38B01C01A524143093A
:1001C0008B4201D34B01C01A524103098B4201D328
:1001D0000B01C01A5241C3088B4201D3CB00C01A95
:1001E000524183088B4201D38B00C01A524143080D
:1001F0008B4201D34B00C01A5241411A00D2014632
:10020000524110467047FFE701B5002000F006F8A4
:1002100002BDC0460029F7D076E770477047C04658
:1002200010B504000F4B1978FA208000FFF76CFF1F
:1002300001000D4B1868FFF767FF00F089F80028F0
:100240000DD1032C01D901200AE001300022210048
:10025000404200F043F8034B5C60002000E00120C6
:1002600010BDC046000000201800002010B5084A4C
:10027000136840210B4313600020FFF7D1FF041ED9
:1002800002D00124200010BD01F0B4FBFAE7C04603
:1002900000200240034A1168034B1B785B1813606F
:1002A0007047C0463800002000000020014B18684D
:1002B0007047C0463800002070B50400FFF7F6FF15
:1002C0000500631C02D0044B1B78E418FFF7EEFF17
:1002D000401BA042FAD370BD0000002070B500287A
:1002E00011DB8408134DC034A40062590323184065
:1002F000C000FC331E008640B24389010B4083409E
:100300001343635170BDC0B20F220240083A9208F5
:1003100006329200084BD3185D6803242040C000C9
:10032000FF2214008440A54389010A4082402A43E9
:100330005A60E7E700E100E000ED00E01F2318400D
:100340001E3B8340014A13607047C04600E100E055
:1003500001380A4B98420FD8094A50600948036A8D
:100360001B021B0AC02109060B4303620023936092
:1003700007331360002070470120FCE7FFFFFF00F8
:1003800010E000E000ED00E0F0B5CE46474680B555
:1003900000238BE085685F000326BE40B5432E0036
:1003A000CD68BD40354385604568A5434C68260946
:1003B000012434409C402C434460C7685E00032401
:1003C000B440E443A44627408D68B5403D43C56032
:1003D0004C68022C01D0122C10D1DC080834A40087
:1003E000A146275807251D40AD000F24AC40A74368
:1003F0000C69AC4025003D434C46255005686446D9
:10040000254003244F683C40B4402C4304604C68B2
:10041000E4004AD5344D6C6B012634436C639C0870
:10042000A51CAD00314EAF5903251D40AD000F2670
:10043000AE40B743A026F605B0424DD02C4EB04298
:100440004CD02C4EB04245D00626AE4035003D4340
:100450000234A400254EA551274C2568D4432E0014
:1004600026404F68FF0301D515432E00224D2E6014
:100470006D682E0026404F68BF0301D515432E003E
:100480001D4D6E60AD682E0026404F68FF0201D5FD
:1004900015432E00184DAE60ED682C404E68B60234
:1004A00001D52A431400144AD46001330A681400A9
:1004B000DC4015D001249C402240F6D04D686E1ED1
:1004C000012E00D866E7112D00D163E7122D00D070
:1004D00073E75FE70226B8E70026B6E70126B4E730
:1004E0000CBC90469946F0BD00100240000001404F
:1004F000000400500008005000040140002A01D10F
:10050000816270478161FCE710B5054B5B69184259
:1005100000D110BD024B586101F098F8F9E7C046D0
:100520000004014003689A69920701D500229A628B
:1005300003689A69D20703D49A6901210A439A6130
:1005400070470000F0B5059C05686868660D802757
:10055000FF003740054E3E43B0438905890D120424
:1005600011430B43234303436B60F0BDFF63FF0361
:1005700070B504000E00150003689B69DB0619D5F1
:1005800023689A69920617D4731CF9D0FFF78EFE80
:10059000401BB04201D8002EF2D1636C20221343DD
:1005A00063644123E25400232232A354023AA35449
:1005B00001201AE0002018E01022DA6123682025CB
:1005C000DD612000FFF7AEFF2268536807490B404A
:1005D0005360636C0422134363644123E554002396
:1005E0003E32A354023AA354012070BD00E800FE3D
:1005F00070B504000D00160023689B699B071CD48E
:10060000320029002000FFF7B3FF002817D16B1C30
:10061000F2D0FFF74BFE801BA84201D8002DEBD192
:10062000636C2022134363644123E254002322328B
:10063000A354023AA354012000E0002070BD012021
:10064000FCE7F8B506000C0017001D0033689B6935
:1006500023401B1B5A425341BB4216D16B1CF5D0A1
:10066000FFF724FE069BC01AA84201D8002DEDD149
:10067000736C2022134373644123F254002322320B
:10068000B354023AB354012000E00020F8BD70B525
:1006900005000C0016002B689B699B061AD43200DB
:1006A00021002800FFF764FF002815D1FFF7FEFDA9
:1006B000801BA04201D8002CEDD16B6C202213438B
:1006C0006B644123EA5400232232AB54023AAB5408
:1006D000012070BD0020FCE70120FAE710B5041EE0
:1006E00059D04123C35C002B43D041232422E25440
:1006F0002268136801218B4313602268274B6168CD
:100700000B4013612268936825490B409360E368AE
:10071000012B34D0226884231B02A1680B43936011
:10072000E368022B32D0226851681E4B0B435360A2
:100730002268D3681A490B40D36023696269134366
:10074000A269120221681343CB602268E369216A1F
:100750000B4313602268136801210B4313600023CD
:10076000636441221F31A15423630132A35400204A
:1007700010BD40330022C25401F04AF9B5E72268A7
:1007800080231B02A1680B439360C9E72368802282
:1007900012015A60C7E70120EAE7C046FFFFFFF0F9
:1007A000FF7FFFFF00800002F0B585B005000391D8
:1007B00017001E004123C35C202B00D099E020339A
:1007C000C35C012B00D197E040230122C254FFF704
:1007D0006DFD0400802100901923012209022800E8
:1007E000FFF72FFF002800D088E041232122EA54A0
:1007F0000133113AEA5400236B646F626E856B63B8
:100800006B8D9BB2FF2B0BD9FF232B857F3B3F4A80
:1008100000925B04FF2203992800FFF793FE18E083
:100820006A8D92B22A858023D2B2384900919B0406
:1008300003992800FFF786FE0BE06A8D92B22A85A5
:100840008023D2B2002100919B0403992800FFF776
:1008500079FE6B8D9BB2002B34D022000A992800C0
:10086000FFF7C6FE00284BD12B686A6A12789A629D
:100870006B6A01336B626B8D013B9BB26B852B8D79
:10088000013B9BB22B856A8D92B2002AE1D0002BEE
:10089000DFD100940A9B002280212800FFF7D1FEBF
:1008A00000282FD16B8D9BB2FF2BC6D9FF232B8540
:1008B0007F3B002200925B04FF3203992800FFF780
:1008C00041FEC6E722000A992800FFF7E0FE002853
:1008D0001AD12B682022DA6129684B680C4C23401E
:1008E0004B604123EA5400232232AB54023AAB540A
:1008F00000E0022005B0F0BD0220FBE70120F9E78F
:100900000120F7E70120F5E70120F3E70020008050
:1009100000E800FEF0B587B00600039115001F0047
:10092000002305934133C35C202B00D0A2E0036871
:100930009B691B0400D5A0E04023C35C012B00D1C0
:100940009DE040230122C25401332332C2540023CC
:100950004364F368012B18D0039B9A05920DA023E2
:100960009B01134332685360FFF7A0FC0400326818
:10097000916920230B40591E8B41D9B293691022F3
:100980001A40531E9A41D3B212E0039B9A05920D6E
:100990003F4B1343E6E73268916920230B40591E11
:1009A0008B41D9B29269102313405A1E9341DBB296
:1009B0000B4313D17B1CEED0FFF778FC001BB84231
:1009C00001D8002FE7D120224123F254736C134346
:1009D000736440230022F25401204CE033689B6989
:1009E000DB0622D500943B00002220213000FFF7D7
:1009F00028FE002847D133681022DA6133681032AC
:100A0000DA61059BAB4222D0059B01330593059B20
:100A1000AB429ED320224123F254736C1343736480
:100A200040230022F254012025E000943B000022E4
:100A300020213000FFF705FE002822D13268202354
:100A4000D3614122B35420330022F25413E03268C0
:100A500051688023DB010B43536000943B0000226C
:100A600020213000FFF7EDFD00280ED13368202251
:100A7000DA61C9E7022007B0F0BD0220FBE70220DF
:100A8000F9E70120F7E70120F5E70120F3E7C04689
:100A900000200002F0B54123C35C202B20D120337D
:100AA000C35C012B1ED04024012202554125242382
:100AB00043550668336893433360066833680A4FCA
:100AC0003B403360066833681943316001680B6846
:100AD00013430B602023435500230355002000E0FF
:100AE0000220F0BD0220FCE7FFEFFFFFF0B541233D
:100AF000C35C202B1ED12033C35C012B1CD04024AF
:100B00000122025541252423435506683368934347
:100B1000336006683368094F3B400902194331606E
:100B200001680B6813430B602023435500230355D2
:100B3000002000E00220F0BD0220FCE7FFF0FFFFF4
:100B400070B588B006000C0015001422002103A81F
:100B500001F03AF8022304930693002E19D0802363
:100B60009B000393134AD16A01231943D162D26ACD
:100B700013400293029BA02003A9C005FFF704FCC9
:100B80000C4BDA680C490A402C432243DA6008B067
:100B900070BDFE330393074AD16AFF3B1943D1620C
:100BA000D26A13400193019BA02003A9C005FFF75F
:100BB000EBFBE5E700100240FFFFFF8010B5264B7E
:100BC000D9680C230B40082B42D00C2B11D0042BDE
:100BD00009D0214B5A68520B072313400133802060
:100BE0000002984010BD1C4B1B68DB0632D51B4829
:100BF000F8E78A0C0F231340194AD05C890D0322B1
:100C000011400131144BDB68DB030DD4124B1B6820
:100C1000DB0613D54201121A93019B1ADB001B1845
:100C20001802FFF771FADDE74201121A93019B1ACD
:100C3000DB001B185802FFF767FAD3E74201121ACC
:100C400093019B1ADB001B189802FFF75DFAC9E7B6
:100C50000448C7E70448C5E70010024000093D000A
:100C6000701C000800127A000024F400F0B583B074
:100C7000041E00D165E2C44BDA680C251540DA6821
:100C80008026760216400368DB0736D5082D2CD067
:100C90000C2D28D0636880225202934255D0A022A6
:100CA000D202934258D0B84B1A68B8490A401A6029
:100CB0001A68802149020A400192019A1A68B449CF
:100CC0000A401A606368002B52D0FFF7EFFA070062
:100CD000AD4B1B689B0310D4FFF7E8FAC01B6428D8
:100CE000F6D903202EE2002ED4D0A74B1B689B031D
:100CF00003D56368002B00D126E223689B076CD5DF
:100D0000E3689A0605D5A048026820210A430260DC
:100D10008B43042D3CD00C2D38D0002B00D1AEE0FD
:100D200099490A680920824313430B60FFF7BEFA12
:100D30000600954B1B685B0700D597E0FFF7B6FAF6
:100D4000801B0228F5D90320FCE18F4A116880231B
:100D50005B020B431360B5E78B4B19688022D2020C
:100D60000A431A601968802252020A431A60A9E7EE
:100D7000FFF79CFA0700844B1B689B03BDD5FFF768
:100D800095FAC01B6428F6D90320DBE1002EC4D1FC
:100D90007D4A1268520702D5002B00D1D6E17A4E67
:100DA00072687C490A40216909020A43726032680C
:100DB00009218A4313433360FFF700FFF2681209E9
:100DC0000F231340744AD35CD840744B1860002042
:100DD000FFF726FA002800D0B4E12368DB062CD503
:100DE000002D5FD1684B1B689B0503D5A369002BC1
:100DF00000D1ADE1644A536869490B40216A0B4355
:100E0000536053681B021B0AE16909060B435360D8
:100E1000236A590B013180231B028B40D1680909D9
:100E20000F220A405C498A5CD3405C4A1360002070
:100E3000FFF7F6F9002800D084E123681B077DD571
:100E40006369002B67D0504A136D01210B43136572
:100E5000FFF72CFA06004C4B1B6D9B076ED4FFF777
:100E600025FA801B0228F6D903206BE146494B681E
:100E7000484A13402269120213434B60ADE7424ACD
:100E8000136801218B431360FFF710FA06003E4BF5
:100E90001B685B07A1D5FFF709FA801B0228F6D96A
:100EA00003204FE1A369002B22D0374A1168802329
:100EB0005B000B431360FFF7F9F90600324B1B6828
:100EC0009B0506D4FFF7F2F9801B0228F6D9032010
:100ED00038E12D4A536832490B40216A0B43536075
:100EE00053681B021B0AE16909060B435360A4E720
:100EF000254A13682B490B401360FFF7D7F906000A
:100F0000214B1B689B0598D5FFF7D0F9801B022861
:100F1000F6D9032016E11C4A136D01218B4313659A
:100F2000FFF7C4F90600184B1B6D9B0706D5FFF7AA
:100F3000BDF9801B0228F6D9032003E123685B0773
:100F400000D48CE0104B9B6BDB001BD40E4A916BE2
:100F500080235B050B4393630126134B1B68DB0562
:100F600026D5A36880225200934235D0002B4BD166
:100F7000054B1A6D0B490A401A651A6D0B490A4058
:100F80001A652FE00026E8E700100240FFFFFEFF91
:100F9000FFFFFBFFFFE0FFFF7C1C000818000020A4
:100FA000FF1FFFFFFFFEFFFF00700040FFFBFFFF82
:100FB0006B4A116880235B000B431360FFF776F9DF
:100FC0000700674B1B68DB05CBD4FFF76FF9C01B2D
:100FD0006428F6D90320B5E0624A116D80235B00D6
:100FE0000B431365A368002B28D0FFF75FF90700B8
:100FF0005C4B1B6D9B0530D4FFF758F9C01B5A4B57
:101000009842F5D903209DE0A022D200934209D056
:10101000544B1A6D55490A401A651A6D54490A40D5
:101020001A65DFE74F4B196D013AFF3A0A431A651B
:10103000196D802252000A431A65D3E7FFF736F98B
:101040000700484B1B6D9B0507D5FFF72FF9C01B09
:10105000454B9842F5D9032074E0012E1AD0636AFB
:10106000002B00D176E00C2D4FD0022B18D03D4A3A
:10107000136840490B401360FFF718F90400394B1F
:101080001B689B013FD5FFF711F9001B0228F6D919
:10109000032057E0334A936B37490B409363DEE7F5
:1010A000304A136833490B401360FFF7FFF805001F
:1010B0002C4B1B689B0106D5FFF7F8F8401B022854
:1010C000F6D903203EE02749CB682C4A1340A26A98
:1010D000E06A0243206B02431343CB600A6880231B
:1010E0005B0413430B60FFF7E1F804001D4B1B6822
:1010F0009B0106D4FFF7DAF8001B0228F6D903207B
:1011000020E000201EE000201CE0012B24D0154B25
:10111000DA6880235B021340A16A8B4201D0012070
:1011200010E0F0239B031340E16A8B4201D00120C1
:1011300008E0C0231B041A40236B9A420ED0012002
:1011400000E0012003B0F0BD0120FBE70120F9E73A
:101150000120F7E70020F5E70120F3E70020F1E7A1
:10116000007000400010024088130000FFFEFFFFE7
:10117000FFFBFFFFFFFFFFFEFFFFFFEFFFFF02FF91
:1011800070B504000D00002800D1BAE05F4B1A686A
:10119000012313408B420BD25C490B68012293431D
:1011A0002B430B600B681A40AA4201D00120A9E032
:1011B00023689B0706D5564AD368F0218B43A16864
:1011C0000B43D3602368DB0764D56368022B09D027
:1011D000032B29D0012B2DD04D4A1268920506D43D
:1011E00001208FE04A4A1268920300D48BE04849FC
:1011F000CA68032082431343CB60FFF757F8060009
:101200006368022B1CD0032B28D0012B34D0404B19
:10121000DB680C221A423DD0FFF748F8801B3D4B9B
:101220009842F4D903206DE0394A12689201DED465
:10123000012067E0364A12685207D8D4012061E0E5
:10124000334BDA680C231340082B23D0FFF72EF81A
:10125000801B304B9842F3D9032053E02C4BDA68C3
:101260000C2313400C2B15D0FFF720F8801B294BC3
:101270009842F3D9032045E0254BDA680C2313404C
:10128000042B07D0FFF712F8801B224B9842F3D9AA
:10129000032037E01D4B1A6801231340AB420BD9E2
:1012A0001A490B68012293432B430B600B681A40C9
:1012B000AA4201D0012025E023685B0706D5144A25
:1012C000D36815490B40E1680B43D36023681B07C3
:1012D00007D50F49CB68114A13402269D200134346
:1012E000CB60FFF76BFC0A4BDA6812090F2313403F
:1012F0000B4AD35CD8400B4B18600020FEF790FFE0
:1013000000E0012070BD0120FCE7C0460020024043
:101310000010024088130000FFF8FFFFFFC7FFFF27
:101320007C1C00081800002070B5040003689B06B0
:101330004CD55B4B9B6BDB0000D571E0584A916B41
:1013400080235B050B4393630125564B1B68DB052C
:1013500068D5534B1968C0239B031940626813403A
:101360008B4206D0C0239B0211001940994200D144
:101370006DE04B4B1B6DC02189020B4015D00A401C
:101380009A4212D023689B060FD5454B186D464AEA
:1013900002401E6D8021090331431965196D434ECA
:1013A000314019651A65C30558D46368C02292029A
:1013B00019001140914260D039490B6DC022920250
:1013C0006068024013430B65012D60D023689B07C2
:1013D00006D5334AD36C0C218B43A1680B43D364ED
:1013E00023685B0706D52E4AD36C31490B40E16870
:1013F0000B43D36423681B0706D5294AD36C2D49B8
:101400000B4021690B43D36423681B0645D5244A4E
:10141000D36C29490B4061690B43D364002070BD34
:10142000002592E71F4A116880235B000B4313607D
:10143000FEF73CFF06001B4B1B68DB0500D588E769
:10144000FEF734FF801B6428F5D90320E7E7144B2F
:101450001B689B0300D48CE70120E0E7FEF726FF22
:1014600006000F4B1B6D9B059FD4FEF71FFF801BD3
:10147000124B9842F5D90320D1E709490A68104870
:101480000240C0208003034013430B6094E70A002E
:101490008B6B0C490B40936398E70020BFE7C04675
:1014A0000010024000700040FFFFFCFFFFFFF7FF4D
:1014B000FFF3FFFFFFCFFFFFFFFFF3FF88130000E5
:1014C000FFFFCFFFFFFFFFEFF0B589B0142200212F
:1014D00003A800F079FB204BDA6A02252A43DA627E
:1014E000DA6A2A400192019ADA6A01273A43DA62FB
:1014F000DB6A3B400293029B00228221A020C005B0
:10150000FEF7FCFF8026B6000396144B04930024DC
:10151000059403A91248FEF737FF03950497059435
:10152000069403A9A020C005FEF72EFF8023039395
:1015300004970595069403A9A020C005FEF724FF93
:101540000396049505940694079403A9A020C0056A
:10155000FEF71AFF09B0F0BD0010024000001110A4
:101560000004005010B50D4C0D4B23600D4B636013
:101570000023A3600122E26023616361A361E36150
:1015800023622000FFF7AAF800212000FFF782FA6B
:1015900000212000FFF7AAFA10BDC0463C00002041
:1015A00000540040BB7C700010B5002200210720D1
:1015B000FEF794FE0720FEF7C1FE10BD10B598B0EF
:1015C000342200210BA800F0FFFA1422002106A803
:1015D00000F0FAFA18220021684600F0F5FA1949DD
:1015E0000B68194A1A4080231B0113430B60022326
:1015F0000B9301220E920F320F9214930024159434
:101600008023DB0216938023DB0317930BA8FFF7DD
:101610002DFB0F2306930C3B0793089409940A941F
:10162000012106A8FFF7ACFD082300930494684647
:10163000FFF77AFE8021002249040120FFF780FA9B
:1016400018B010BD00700040FFE7FFFF82B080239C
:101650009B00984201D002B0704700230193019390
:1016600002E0019B01330193019A094B9A42F8D1A0
:10167000084B1B78DBB2042B05D8064A13780133DC
:10168000DBB21370E7E7034B01221A70E3E7C046B1
:1016900050C300000800002000B585B003AA1070F8
:1016A00051700A230093083B78210248FFF77CF829
:1016B00005B000BD3C00002010B500212520FFF73B
:1016C000EBFF10BD10B5002801D10130C0B20229D6
:1016D00000D902211E2A00D91E22013843001B18FE
:1016E0000348C018405C1100FFF7D6FF10BDC0468C
:1016F0000C1C000870B505285AD88000504B1B58A8
:101700009F46504E7379504C2425E3185A5D0021B2
:101710000220FFF7D7FFF379E3185A5D0021042078
:10172000FFF7D0FFB37AE3185A5D00210720FFF7D7
:10173000C9FFB37BE3185A5D00210B20FFF7C2FFFE
:10174000337AE3185A5D01210520FFF7BBFF337997
:10175000E3185A5D01210120FFF7B4FF337BE31842
:101760005A5D01210920FFF7ADFFF37BE3185A5DB5
:1017700001210C20FFF7A6FFF37AE3185A5D02213E
:101780000820FFF79FFFB379E3185A5D0221032079
:10179000FFF798FF737AE3185A5D02210620FFF7DE
:1017A00091FF737BE418625D02210A20FFF78AFF34
:1017B000002336E001240D2CFAD014220021200051
:1017C000FFF780FF102201212000FFF77BFF01348B
:1017D000E4B2F0E701240D2CEAD01E220021200003
:1017E000FFF770FF0134E4B2F5E701240D2CDFD0E0
:1017F0001E2201212000FFF765FF0134E4B2F5E766
:1018000001240D2CD4D01E2202212000FFF75AFF04
:101810000134E4B2F5E70B49C91801320A7101330A
:10182000DBB20C2B09D0074AD21812793E2AF2D922
:10183000044AD21800211171F1E7FFF73DFF70BD96
:10184000F01B0008080000200C1C0008F0B585B053
:1018500003AC4F232370002767702A4D0A26009699
:101860004D3B220078212800FEF79EFFFA20400021
:10187000FEF722FD4A23237067700096483B220042
:1018800078212800FEF790FF2770012363700096EF
:101890000133220078212800FEF786FF07236370BA
:1018A00026240AE003AA14700A230093083B782137
:1018B0001448FEF779FF0134E4B2492CF2D903ABA6
:1018C00000225A7001240AE003AA14700A2300932C
:1018D000083B78210B48FEF767FF0134E4B2242C63
:1018E000F2D903AA25231370002353700A330093FF
:1018F000083B78210348FEF757FF6420FEF7DCFC25
:1019000005B0F0BD3C00002010B5FEF7AFFCFFF7BE
:1019100055FEFFF7D9FDFFF725FEFFF745FEA02096
:1019200001228021C005FEF7E9FD0A230222782169
:101930002E48FEF7EFFF002812D1A024E405012273
:1019400002212000FEF7DAFDC820FEF7B5FC0022D8
:1019500002212000FEF7D2FDFFF778FF00243DE0D2
:10196000A024E405012202212000FEF7C7FDC820C3
:10197000FEF7A2FC002202212000FEF7BFFDC820D6
:10198000FEF79AFC012202212000FEF7B7FDC820D5
:10199000FEF792FC002202212000FEF7AFFDDBE7FC
:1019A000002200212000FFF78DFE002201212000EF
:1019B000FFF788FE002202212000FFF783FE01349A
:1019C000E4B20D2CECD10A4B1C78E4B2084B187829
:1019D000C0B2FFF78FFE6420FEF76EFC044B1B784D
:1019E000DBB2A342F2D00124EBE7C0463C0000206A
:1019F00008000020054B5A6B01210A435A63996B7A
:101A0000802252050A439A637047C0460010024084
:101A1000F0B587B004001422002101A800F0D4F82A
:101A20002268164B9A4201D007B0F0BD144CE36A0D
:101A300001252B43E362E36A2B400093009B1023B4
:101A4000019312270297039503260496059601A990
:101A5000A020C005FEF798FC8023DB0001930297CD
:101A600003950496059501A9A020C005FEF78CFCFE
:101A7000A26B80239B031343A363D5E7005400406C
:101A8000001002407047FEE77047704710B5FEF740
:101A900001FC10BD10B580208000FEF735FD10BDA3
:101AA000104B1968802252000A431A60DA680E4906
:101AB0000A40DA601A680D490A401A609A680121E2
:101AC0008A439A601A680A490A401A60DA68094922
:101AD0000A40DA6000221A61074B802212059A60E0
:101AE0007047C046001002400C40FF88F6FFF6FE2B
:101AF000FFFFFBFFFFFF02FF00ED00E013488546FC
:101B000013480168090E134A914205D1124813493E
:101B10000160134813490160002103E0124B5B5838
:101B2000435004311148124B42189A42F6D3114ADD
:101B300002E00023136004320F4B9A42F9D3FFF7FF
:101B4000AFFF00F01DF8FFF7DFFEFEE70008002002
:101B5000040000001F0000003410024001000000DB
:101B600000000140000000009C1C00080000002054
:101B70001C0000201C00002088000020FEE7000060
:101B800070B500260C4D0D4C641BA410A64209D163
:101B9000002600F021F80A4D0A4C641BA410A6424E
:101BA00005D170BDB300EB5898470136EEE7B3009E
:101BB000EB5898470136F2E7941C0008941C000883
:101BC000941C0008981C000803001218934200D1CE
:101BD000704719700133F9E7F8B5C046F8BC08BC86
:101BE0009E467047F8B5C046F8BC08BC9E46704794
:101BF000B017000802170008B4170008D41700082F
:101C0000EA170008001800084F00254A01020304E3
:101C100005060708090A0B0C0D0E0F1011122223DE
:101C2000241F20211C1D1E191A1B1617181314150A
:101C30000000000102040507080A0B0D0E0F101228
:101C4000131415161718191A1B1B1C1C1C1D1D1DFF
:101C50001D1D1D1C1C1C1B1B1A19181716151413EF
:101C600012100F0E0D0B0A080705040201000000F8
:101C7000030406080C1018203000000000000000CB
:101C8000000000000102030406070809000000002C
:041C90000102030446
:041C9400E90000085B
:041C9800C10000087F
:101C9C000100000004000000010000000F28320ABF
:0C1CAC0019051E002337142D0000200035
:0400000508001AFDD8
:00000001FF
